{
  "_format": "hh-sol-artifact-1",
  "contractName": "ReceiverV8",
  "sourceName": "contracts/4_ReceiverV8.sol",
  "abi": [
    {
      "inputs": [],
      "stateMutability": "nonpayable",
      "type": "constructor"
    },
    {
      "inputs": [
        {
          "internalType": "uint256[]",
          "name": "amounts",
          "type": "uint256[]"
        },
        {
          "internalType": "bytes[]",
          "name": "signatures",
          "type": "bytes[]"
        },
        {
          "internalType": "address[]",
          "name": "targets",
          "type": "address[]"
        },
        {
          "internalType": "address[]",
          "name": "signers",
          "type": "address[]"
        }
      ],
      "name": "batchExecute",
      "outputs": [
        {
          "internalType": "string",
          "name": "",
          "type": "string"
        }
      ],
      "stateMutability": "nonpayable",
      "type": "function"
    },
    {
      "inputs": [
        {
          "internalType": "address",
          "name": "signer",
          "type": "address"
        }
      ],
      "name": "init",
      "outputs": [],
      "stateMutability": "nonpayable",
      "type": "function"
    }
  ],
  "bytecode": "0x60806040523480156200001157600080fd5b50620000c560405180608001604052806040518060400160405280600a81526020017f546f75636850726f78790000000000000000000000000000000000000000000081525081526020016040518060400160405280600181526020017f3100000000000000000000000000000000000000000000000000000000000000815250815260200161169181526020013073ffffffffffffffffffffffffffffffffffffffff16815250620000d160201b60201c565b60018190555062000221565b60007f8b73c3c69bb8fe3d512ecc4cf759cc79239f7b179b0ffacaa9a75d522b39400f826000015180519060200120836020015180519060200120846040015185606001516040516020016200012c9594939291906200017c565b604051602081830303815290604052805190602001209050919050565b6200015481620001d9565b82525050565b6200016581620001ed565b82525050565b620001768162000217565b82525050565b600060a0820190506200019360008301886200015a565b620001a260208301876200015a565b620001b160408301866200015a565b620001c060608301856200016b565b620001cf608083018462000149565b9695505050505050565b6000620001e682620001f7565b9050919050565b6000819050919050565b600073ffffffffffffffffffffffffffffffffffffffff82169050919050565b6000819050919050565b610e5c80620002316000396000f3fe608060405234801561001057600080fd5b50600436106100365760003560e01c806319ab453c1461003b578063dda81a9514610057575b600080fd5b6100556004803603810190610050919061087f565b610087565b005b610071600480360381019061006c91906108a8565b6100cf565b60405161007e9190610b38565b60405180910390f35b6001600260008373ffffffffffffffffffffffffffffffffffffffff1673ffffffffffffffffffffffffffffffffffffffff1681526020019081526020016000208190555050565b606060005b85518110156104c2576000868281518110610118577f4e487b7100000000000000000000000000000000000000000000000000000000600052603260045260246000fd5b60200260200101519050600085838151811061015d577f4e487b7100000000000000000000000000000000000000000000000000000000600052603260045260246000fd5b602002602001015190506000600260008786815181106101a6577f4e487b7100000000000000000000000000000000000000000000000000000000600052603260045260246000fd5b602002602001015173ffffffffffffffffffffffffffffffffffffffff1673ffffffffffffffffffffffffffffffffffffffff1681526020019081526020016000205490506000888581518110610226577f4e487b7100000000000000000000000000000000000000000000000000000000600052603260045260246000fd5b60200260200101519050600087868151811061026b577f4e487b7100000000000000000000000000000000000000000000000000000000600052603260045260246000fd5b60200260200101519050600060405180606001604052808781526020018673ffffffffffffffffffffffffffffffffffffffff16815260200185815250905060008060006102b886610503565b80935081945082955050505060006102d285858585610546565b9050600260008773ffffffffffffffffffffffffffffffffffffffff1673ffffffffffffffffffffffffffffffffffffffff168152602001908152602001600020600081548092919061032490610d36565b91905055508073ffffffffffffffffffffffffffffffffffffffff168673ffffffffffffffffffffffffffffffffffffffff161461036b57505050505050505050506104af565b8073ffffffffffffffffffffffffffffffffffffffff168673ffffffffffffffffffffffffffffffffffffffff16146103d9576040517f08c379a00000000000000000000000000000000000000000000000000000000081526004016103d090610b5a565b60405180910390fd5b886000806101000a81548173ffffffffffffffffffffffffffffffffffffffff021916908373ffffffffffffffffffffffffffffffffffffffff16021790555060008054906101000a900473ffffffffffffffffffffffffffffffffffffffff1673ffffffffffffffffffffffffffffffffffffffff1663a0712d688b6040518263ffffffff1660e01b81526004016104729190610b7a565b600060405180830381600087803b15801561048c57600080fd5b505af11580156104a0573d6000803e3d6000fd5b50505050505050505050505050505b80806104ba90610d36565b9150506100d4565b506040518060400160405280600481526020017f68616861000000000000000000000000000000000000000000000000000000008152509050949350505050565b6000806000604184511461051657600080fd5b60008060006020870151925060408701519150606087015160001a90508083839550955095505050509193909250565b600080600154610555876105d8565b604051602001610566929190610a77565b604051602081830303815290604052805190602001209050600181868686604051600081526020016040526040516105a19493929190610af3565b6020604051602081039080840390855afa1580156105c3573d6000803e3d6000fd5b50505060206040510351915050949350505050565b60007fcc0c9433b2cbbefb9e0f0d07a8e92ceaf6c687e0b4baa093d4bc4cdab204893082600001518360200151846040015160405160200161061d9493929190610aae565b604051602081830303815290604052805190602001209050919050565b600061064d61064884610bc6565b610b95565b9050808382526020820190508285602086028201111561066c57600080fd5b60005b8581101561069c578161068288826107ad565b84526020840193506020830192505060018101905061066f565b5050509392505050565b60006106b96106b484610bf2565b610b95565b9050808382526020820190508260005b858110156106f957813585016106df8882610840565b8452602084019350602083019250506001810190506106c9565b5050509392505050565b600061071661071184610c1e565b610b95565b9050808382526020820190508285602086028201111561073557600080fd5b60005b85811015610765578161074b888261086a565b845260208401935060208301925050600181019050610738565b5050509392505050565b600061078261077d84610c4a565b610b95565b90508281526020810184848401111561079a57600080fd5b6107a5848285610cf4565b509392505050565b6000813590506107bc81610df8565b92915050565b600082601f8301126107d357600080fd5b81356107e384826020860161063a565b91505092915050565b600082601f8301126107fd57600080fd5b813561080d8482602086016106a6565b91505092915050565b600082601f83011261082757600080fd5b8135610837848260208601610703565b91505092915050565b600082601f83011261085157600080fd5b813561086184826020860161076f565b91505092915050565b60008135905061087981610e0f565b92915050565b60006020828403121561089157600080fd5b600061089f848285016107ad565b91505092915050565b600080600080608085870312156108be57600080fd5b600085013567ffffffffffffffff8111156108d857600080fd5b6108e487828801610816565b945050602085013567ffffffffffffffff81111561090157600080fd5b61090d878288016107ec565b935050604085013567ffffffffffffffff81111561092a57600080fd5b610936878288016107c2565b925050606085013567ffffffffffffffff81111561095357600080fd5b61095f878288016107c2565b91505092959194509250565b61097481610ca1565b82525050565b61098381610cb3565b82525050565b61099a61099582610cb3565b610d7f565b82525050565b60006109ab82610c7a565b6109b58185610c85565b93506109c5818560208601610d03565b6109ce81610de7565b840191505092915050565b60006109e6600283610c96565b91507f19010000000000000000000000000000000000000000000000000000000000006000830152600282019050919050565b6000610a26601383610c85565b91507f766572696669636174696f6e206661696c6564000000000000000000000000006000830152602082019050919050565b610a6281610cdd565b82525050565b610a7181610ce7565b82525050565b6000610a82826109d9565b9150610a8e8285610989565b602082019150610a9e8284610989565b6020820191508190509392505050565b6000608082019050610ac3600083018761097a565b610ad06020830186610a59565b610add604083018561096b565b610aea6060830184610a59565b95945050505050565b6000608082019050610b08600083018761097a565b610b156020830186610a68565b610b22604083018561097a565b610b2f606083018461097a565b95945050505050565b60006020820190508181036000830152610b5281846109a0565b905092915050565b60006020820190508181036000830152610b7381610a19565b9050919050565b6000602082019050610b8f6000830184610a59565b92915050565b6000604051905081810181811067ffffffffffffffff82111715610bbc57610bbb610db8565b5b8060405250919050565b600067ffffffffffffffff821115610be157610be0610db8565b5b602082029050602081019050919050565b600067ffffffffffffffff821115610c0d57610c0c610db8565b5b602082029050602081019050919050565b600067ffffffffffffffff821115610c3957610c38610db8565b5b602082029050602081019050919050565b600067ffffffffffffffff821115610c6557610c64610db8565b5b601f19601f8301169050602081019050919050565b600081519050919050565b600082825260208201905092915050565b600081905092915050565b6000610cac82610cbd565b9050919050565b6000819050919050565b600073ffffffffffffffffffffffffffffffffffffffff82169050919050565b6000819050919050565b600060ff82169050919050565b82818337600083830152505050565b60005b83811015610d21578082015181840152602081019050610d06565b83811115610d30576000848401525b50505050565b6000610d4182610cdd565b91507fffffffffffffffffffffffffffffffffffffffffffffffffffffffffffffffff821415610d7457610d73610d89565b5b600182019050919050565b6000819050919050565b7f4e487b7100000000000000000000000000000000000000000000000000000000600052601160045260246000fd5b7f4e487b7100000000000000000000000000000000000000000000000000000000600052604160045260246000fd5b6000601f19601f8301169050919050565b610e0181610ca1565b8114610e0c57600080fd5b50565b610e1881610cdd565b8114610e2357600080fd5b5056fea2646970667358221220ffb3f7bf18da396d5a56fbff7170181e51fbe84467089e08747a7ec8f32b137564736f6c63430008000033",
  "linkReferences": {},
  "deployedLinkReferences": {}
}